:100000000C942A000C943F000C943F000C943F0089
:100010000C943F000C943F000C943F000C943F0064
:100020000C943F000C943F000C943F000C943F0054
:100030000C943F000C943F000C943F000C943F0044
:100040000C943F000C943F000C943F000C943F0034
:100050000C943F0011241FBECFE5D8E0DEBFCDBF1A
:1000600010E0A0E6B0E0E0ECF0E002C005900D92F8
:10007000A038B107D9F70E9441000C945E000C949F
:10008000000080E884BF84BF80EF87BB8FEF8ABB0E
:1000900084BB2FEF3FEF86B38F7090E028173907AE
:1000A000D1F326B32F7030E0F901EE0FFF1FE05AB5
:1000B000FF4F908181819BBB85BBEDCFF894FFCF33
:1000C0008007080006050009010903090005040965
:1000D000050540060205010503050209110021007E
:00000001FF
