:100000000C942A000C943F000C943F000C943F0089
:100010000C943F000C943F000C943F000C943F0064
:100020000C943F000C943F000C943F000C943F0054
:100030000C943F000C943F000C943F000C943F0044
:100040000C943F000C943F000C943F000C943F0034
:100050000C943F0011241FBECFE5D8E0DEBFCDBF1A
:1000600010E0A0E6B0E0EAEAF0E002C005900D92F0
:10007000A637B107D9F70E9441000C9453000C94A5
:10008000000080E884BF84BF11BA8FEF84BB8ABBB5
:10009000E0B3F0E0EE0FFF1FE05AFF4F9081818147
:0A00A00095BB8BBBF5CFF894FFCFA2
:1000AA0046F202335044145543832125F01F12A00F
:0600BA005BC247938010B9
:00000001FF
