:100000000C942A000C943C000C943C000C943C0092
:100010000C943C000C943C000C943C000C943C0070
:100020000C943C000C943C000C943C000C943C0060
:100030000C943C000C943C000C943C000C943C0050
:100040000C943C000C943C000C943C000C943C0040
:100050000C943C0011241FBECFE5D8E0DEBFCDBF1D
:1000600020E0A0E6B0E001C01D92A038B207E1F7A1
:100070000E944D000C9497000C94000080E090E0EA
:1000800008C0FC01EE0FFF1FE05AFF4F11821082E3
:10009000019680319105ACF3089580EF87BB11BACA
:1000A0008FEF8ABB0E943E0040E050E080E090E08D
:1000B00002C0C801A701D6B30D2F0F7010E0C0B366
:1000C000EC2EF12CD3FF09C00E943E0087EA91E696
:1000D0000197F1F700C000001EC09C0120273127C6
:1000E00022FF19C082FF11C080FF0FC0FA01EF701C
:1000F000FF27529542954F7045275F704527EE0FB9
:10010000FF1FE05AFF4F5183408387EA91E6019732
:10011000F1F700C00000D1FFCCCFCF70EC2FF0E0A2
:10012000EE0FFF1FE05AFF4F80818BBBC2CFF894C8
:02013000FFCFFF
:00000001FF
