S00B0000414C552E7372656337
S11300000C942A000C9434000C9434000C943400A6
S11300100C9434000C9434000C9434000C9434008C
S11300200C9434000C9434000C9434000C9434007C
S11300300C9434000C9434000C9434000C9434006C
S11300400C9434000C9434000C9434000C9434005C
S11300500C94340011241FBECFE5D8E0DEBFCDBF21
S11300600E9436000C9481000C94000011BA88EFB1
S113007087BB8FE88ABB26B3277030E080B38F70CC
S113008090E040B342954F70642F70E02115310524
S113009019F4860F971F2EC02130310519F4861BE1
S11300A0970B28C02230310519F48623972322C0E8
S11300B02330310519F4862B972B1CC024303105CD
S11300C029F4862B972B8095909514C02530310503
S11300D031F402C0880F991F4A95E2F70BC026300D
S11300E0310531F402C0969587954A95E2F702C02E
S11300F080E090E08F709927009709F480688BBBAB
S1090100BACFF894FFCF12
S9030000FC
